{
  "address": "0x6027846598506D9cF69841415be243d37ED769F2",
  "abi": [
    {
      "inputs": [
        {
          "internalType": "address",
          "name": "vrfCoordinator",
          "type": "address"
        },
        {
          "internalType": "address",
          "name": "link",
          "type": "address"
        },
        {
          "internalType": "bytes32",
          "name": "keyhash",
          "type": "bytes32"
        },
        {
          "internalType": "uint256",
          "name": "fee",
          "type": "uint256"
        }
      ],
      "stateMutability": "nonpayable",
      "type": "constructor"
    },
    {
      "anonymous": false,
      "inputs": [
        {
          "indexed": false,
          "internalType": "uint256",
          "name": "",
          "type": "uint256"
        },
        {
          "indexed": false,
          "internalType": "uint256",
          "name": "",
          "type": "uint256"
        },
        {
          "indexed": false,
          "internalType": "uint256",
          "name": "",
          "type": "uint256"
        },
        {
          "indexed": false,
          "internalType": "uint256",
          "name": "",
          "type": "uint256"
        }
      ],
      "name": "LotteryCreated",
      "type": "event"
    },
    {
      "anonymous": false,
      "inputs": [
        {
          "indexed": false,
          "internalType": "uint256",
          "name": "",
          "type": "uint256"
        },
        {
          "indexed": false,
          "internalType": "uint256",
          "name": "",
          "type": "uint256"
        }
      ],
      "name": "PrizeIncreased",
      "type": "event"
    },
    {
      "anonymous": false,
      "inputs": [
        {
          "indexed": false,
          "internalType": "bytes32",
          "name": "",
          "type": "bytes32"
        },
        {
          "indexed": false,
          "internalType": "uint256",
          "name": "",
          "type": "uint256"
        }
      ],
      "name": "RandomnessRequested",
      "type": "event"
    },
    {
      "anonymous": false,
      "inputs": [
        {
          "indexed": false,
          "internalType": "bytes32",
          "name": "",
          "type": "bytes32"
        },
        {
          "indexed": false,
          "internalType": "uint256",
          "name": "",
          "type": "uint256"
        },
        {
          "indexed": false,
          "internalType": "address",
          "name": "",
          "type": "address"
        }
      ],
      "name": "WinnerDeclared",
      "type": "event"
    },
    {
      "inputs": [
        {
          "internalType": "uint256",
          "name": "_ticketPrice",
          "type": "uint256"
        },
        {
          "internalType": "uint256",
          "name": "_seconds",
          "type": "uint256"
        }
      ],
      "name": "createLottery",
      "outputs": [],
      "stateMutability": "payable",
      "type": "function"
    },
    {
      "inputs": [
        {
          "internalType": "uint256",
          "name": "_lotteryId",
          "type": "uint256"
        }
      ],
      "name": "declareWinner",
      "outputs": [],
      "stateMutability": "nonpayable",
      "type": "function"
    },
    {
      "inputs": [
        {
          "internalType": "uint256",
          "name": "_lotteryId",
          "type": "uint256"
        }
      ],
      "name": "getLottery",
      "outputs": [
        {
          "components": [
            {
              "internalType": "uint256",
              "name": "lotteryId",
              "type": "uint256"
            },
            {
              "internalType": "address[]",
              "name": "participants",
              "type": "address[]"
            },
            {
              "internalType": "uint256",
              "name": "ticketPrice",
              "type": "uint256"
            },
            {
              "internalType": "uint256",
              "name": "prize",
              "type": "uint256"
            },
            {
              "internalType": "address",
              "name": "winner",
              "type": "address"
            },
            {
              "internalType": "bool",
              "name": "isFinished",
              "type": "bool"
            },
            {
              "internalType": "uint256",
              "name": "endDate",
              "type": "uint256"
            }
          ],
          "internalType": "struct LotteryGame.Lottery",
          "name": "",
          "type": "tuple"
        }
      ],
      "stateMutability": "view",
      "type": "function"
    },
    {
      "inputs": [],
      "name": "getLotteryCount",
      "outputs": [
        {
          "internalType": "uint256",
          "name": "",
          "type": "uint256"
        }
      ],
      "stateMutability": "view",
      "type": "function"
    },
    {
      "inputs": [
        {
          "internalType": "uint256",
          "name": "_lotteryId",
          "type": "uint256"
        }
      ],
      "name": "participate",
      "outputs": [],
      "stateMutability": "payable",
      "type": "function"
    },
    {
      "inputs": [
        {
          "internalType": "bytes32",
          "name": "requestId",
          "type": "bytes32"
        },
        {
          "internalType": "uint256",
          "name": "randomness",
          "type": "uint256"
        }
      ],
      "name": "rawFulfillRandomness",
      "outputs": [],
      "stateMutability": "nonpayable",
      "type": "function"
    }
  ],
  "transactionHash": "0x1fb31171f8cbc15322b1422ab938a5977907b8fcc971de72073c309f9159a37a",
  "args": [
    "0xb3dCcb4Cf7a26f6cf6B120Cf5A73875B7BBc655B",
    "0x01BE23585060835E02B77ef475b0Cc51aA1e0709",
    "0x2ed0feb3e7fd2022120aa84fab1945545a9f2ffc9076fd6156fa96eaff4c1311",
    "100000000000000000"
  ],
  "numDeployments": 6,
  "solcInputHash": "ffbff51b42067d542961a5a8856a015c",
  "bytecode": "0x60c06040523480156200001157600080fd5b50604051620021cd380380620021cd833981810160405281019062000037919062000147565b83838173ffffffffffffffffffffffffffffffffffffffff1660a08173ffffffffffffffffffffffffffffffffffffffff1660601b815250508073ffffffffffffffffffffffffffffffffffffffff1660808173ffffffffffffffffffffffffffffffffffffffff1660601b815250505050816006819055508060078190555033600860006101000a81548173ffffffffffffffffffffffffffffffffffffffff021916908373ffffffffffffffffffffffffffffffffffffffff1602179055505050505062000254565b600081519050620001138162000206565b92915050565b6000815190506200012a8162000220565b92915050565b60008151905062000141816200023a565b92915050565b6000806000806080858703121562000164576200016362000201565b5b6000620001748782880162000102565b9450506020620001878782880162000102565b93505060406200019a8782880162000119565b9250506060620001ad8782880162000130565b91505092959194509250565b6000620001c682620001d7565b9050919050565b6000819050919050565b600073ffffffffffffffffffffffffffffffffffffffff82169050919050565b6000819050919050565b600080fd5b6200021181620001b9565b81146200021d57600080fd5b50565b6200022b81620001cd565b81146200023757600080fd5b50565b6200024581620001f7565b81146200025157600080fd5b50565b60805160601c60a05160601c611f3f6200028e600039600081816109940152610d240152600081816104850152610ce80152611f3f6000f3fe6080604052600436106100545760003560e01c8062c2943c146100595780632f9aa1fe14610082578063845c9306146100ad57806392e845f6146100c957806394985ddd14610106578063fe35804e1461012f575b600080fd5b34801561006557600080fd5b50610080600480360381019061007b9190611303565b61014b565b005b34801561008e57600080fd5b506100976105d6565b6040516100a4919061194f565b60405180910390f35b6100c760048036038101906100c29190611303565b6105e7565b005b3480156100d557600080fd5b506100f060048036038101906100eb9190611303565b61083e565b6040516100fd919061192d565b60405180910390f35b34801561011257600080fd5b5061012d600480360381019061012891906112c3565b610992565b005b6101496004803603810190610144919061135d565b610a2e565b005b600860009054906101000a900473ffffffffffffffffffffffffffffffffffffffff1673ffffffffffffffffffffffffffffffffffffffff163373ffffffffffffffffffffffffffffffffffffffff16146101db576040517f08c379a00000000000000000000000000000000000000000000000000000000081526004016101d29061190d565b60405180910390fd5b600060016000838152602001908152602001600020905080600501544211610238576040517f08c379a000000000000000000000000000000000000000000000000000000000815260040161022f9061188d565b60405180910390fd5b60016004600084815260200190815260200160002054141561048057600073ffffffffffffffffffffffffffffffffffffffff168160010160008154811061028357610282611c6a565b5b9060005260206000200160009054906101000a900473ffffffffffffffffffffffffffffffffffffffff1673ffffffffffffffffffffffffffffffffffffffff161415610305576040517f08c379a00000000000000000000000000000000000000000000000000000000081526004016102fc9061184d565b60405180910390fd5b8060010160008154811061031c5761031b611c6a565b5b9060005260206000200160009054906101000a900473ffffffffffffffffffffffffffffffffffffffff168160040160006101000a81548173ffffffffffffffffffffffffffffffffffffffff021916908373ffffffffffffffffffffffffffffffffffffffff16021790555060018160040160146101000a81548160ff02191690831515021790555060008160040160009054906101000a900473ffffffffffffffffffffffffffffffffffffffff1673ffffffffffffffffffffffffffffffffffffffff1682600301546040516103f4906116fa565b60006040518083038185875af1925050503d8060008114610431576040519150601f19603f3d011682016040523d82523d6000602084013e610436565b606091505b505090508061047a576040517f08c379a00000000000000000000000000000000000000000000000000000000081526004016104719061180d565b60405180910390fd5b506105d2565b6007547f000000000000000000000000000000000000000000000000000000000000000073ffffffffffffffffffffffffffffffffffffffff166370a08231306040518263ffffffff1660e01b81526004016104dc919061170f565b60206040518083038186803b1580156104f457600080fd5b505afa158015610508573d6000803e3d6000fd5b505050506040513d601f19601f8201168201806040525081019061052c9190611330565b101561056d576040517f08c379a00000000000000000000000000000000000000000000000000000000081526004016105649061186d565b60405180910390fd5b600061057d600654600754610ce4565b90508260026000838152602001908152602001600020819055507f49cdaa45e000eb9a419ae3b028f7f7bec2179153ebe33293f31286642842132681846040516105c8929190611768565b60405180910390a1505b5050565b60006105e26005610e43565b905090565b600060016000838152602001908152602001600020905080600501544210610644576040517f08c379a000000000000000000000000000000000000000000000000000000000815260040161063b906118cd565b60405180910390fd5b3481600201541461068a576040517f08c379a0000000000000000000000000000000000000000000000000000000008152600401610681906118ad565b60405180910390fd5b80600101339080600181540180825580915050600190039060005260206000200160009091909190916101000a81548173ffffffffffffffffffffffffffffffffffffffff021916908373ffffffffffffffffffffffffffffffffffffffff160217905550348160030160008282546107039190611a49565b9250508190555060006003600084815260200190815260200160002060003373ffffffffffffffffffffffffffffffffffffffff1673ffffffffffffffffffffffffffffffffffffffff16815260200190815260200160002054905060008114156107925760046000848152602001908152602001600020600081548092919061078c90611b7e565b91905055505b6003600084815260200190815260200160002060003373ffffffffffffffffffffffffffffffffffffffff1673ffffffffffffffffffffffffffffffffffffffff16815260200190815260200160002060008154809291906107f390611b7e565b91905055507f3460c8d6fb8c7c026376232c36402d8f009c3bacafe6ff1f69dfce59fa9c09678260000154836003015460405161083192919061196a565b60405180910390a1505050565b610846611146565b600160008381526020019081526020016000206040518060e001604052908160008201548152602001600182018054806020026020016040519081016040528092919081815260200182805480156108f357602002820191906000526020600020905b8160009054906101000a900473ffffffffffffffffffffffffffffffffffffffff1673ffffffffffffffffffffffffffffffffffffffff16815260200190600101908083116108a9575b5050505050815260200160028201548152602001600382015481526020016004820160009054906101000a900473ffffffffffffffffffffffffffffffffffffffff1673ffffffffffffffffffffffffffffffffffffffff1673ffffffffffffffffffffffffffffffffffffffff1681526020016004820160149054906101000a900460ff161515151581526020016005820154815250509050919050565b7f000000000000000000000000000000000000000000000000000000000000000073ffffffffffffffffffffffffffffffffffffffff163373ffffffffffffffffffffffffffffffffffffffff1614610a20576040517f08c379a0000000000000000000000000000000000000000000000000000000008152600401610a17906118ed565b60405180910390fd5b610a2a8282610e51565b5050565b600860009054906101000a900473ffffffffffffffffffffffffffffffffffffffff1673ffffffffffffffffffffffffffffffffffffffff163373ffffffffffffffffffffffffffffffffffffffff1614610abe576040517f08c379a0000000000000000000000000000000000000000000000000000000008152600401610ab59061190d565b60405180910390fd5b60008211610b01576040517f08c379a0000000000000000000000000000000000000000000000000000000008152600401610af89061182d565b60405180910390fd5b60006040518060e00160405280610b186005610e43565b8152602001600067ffffffffffffffff811115610b3857610b37611c99565b5b604051908082528060200260200182016040528015610b665781602001602082028036833780820191505090505b50815260200184815260200160008152602001600073ffffffffffffffffffffffffffffffffffffffff168152602001600015158152602001600184610bac9190611a9f565b42610bb79190611a49565b81525090508060016000610bcb6005610e43565b8152602001908152602001600020600082015181600001556020820151816001019080519060200190610bff92919061119b565b50604082015181600201556060820151816003015560808201518160040160006101000a81548173ffffffffffffffffffffffffffffffffffffffff021916908373ffffffffffffffffffffffffffffffffffffffff16021790555060a08201518160040160146101000a81548160ff02191690831515021790555060c08201518160050155905050610c9260056110ab565b7f68b3cc7239912b7f66b9e2f9d93955382d1082297c9e6347beb37217f081650e8160000151826040015183606001518460c00151604051610cd79493929190611993565b60405180910390a1505050565b60007f000000000000000000000000000000000000000000000000000000000000000073ffffffffffffffffffffffffffffffffffffffff16634000aea07f000000000000000000000000000000000000000000000000000000000000000084866000604051602001610d58929190611768565b6040516020818303038152906040526040518463ffffffff1660e01b8152600401610d859392919061172a565b602060405180830381600087803b158015610d9f57600080fd5b505af1158015610db3573d6000803e3d6000fd5b505050506040513d601f19601f82011682018060405250810190610dd79190611296565b506000610df984600030600080898152602001908152602001600020546110c1565b9050600160008086815260200190815260200160002054610e1a9190611a49565b60008086815260200190815260200160002081905550610e3a84826110fd565b91505092915050565b600081600001549050919050565b60006002600084815260200190815260200160002054905060006001600083815260200190815260200160002090506000610e9c82600101805490508561113090919063ffffffff16565b905060018260040160146101000a81548160ff021916908315150217905550816001018181548110610ed157610ed0611c6a565b5b9060005260206000200160009054906101000a900473ffffffffffffffffffffffffffffffffffffffff168260040160006101000a81548173ffffffffffffffffffffffffffffffffffffffff021916908373ffffffffffffffffffffffffffffffffffffffff1602179055506002600086815260200190815260200160002060009055600460008481526020019081526020016000206000905560008260040160009054906101000a900473ffffffffffffffffffffffffffffffffffffffff1673ffffffffffffffffffffffffffffffffffffffff168360030154604051610fba906116fa565b60006040518083038185875af1925050503d8060008114610ff7576040519150601f19603f3d011682016040523d82523d6000602084013e610ffc565b606091505b5050905080611040576040517f08c379a00000000000000000000000000000000000000000000000000000000081526004016110379061180d565b60405180910390fd5b7fde0c090c9d4a201b2d76010af69467e968ab380b646781fa3c78ec193892a1f98684600001548560040160009054906101000a900473ffffffffffffffffffffffffffffffffffffffff1660405161109b93929190611791565b60405180910390a1505050505050565b6001816000016000828254019250508190555050565b6000848484846040516020016110da94939291906117c8565b6040516020818303038152906040528051906020012060001c9050949350505050565b600082826040516020016111129291906116ce565b60405160208183030381529060405280519060200120905092915050565b6000818361113e9190611bdb565b905092915050565b6040518060e0016040528060008152602001606081526020016000815260200160008152602001600073ffffffffffffffffffffffffffffffffffffffff168152602001600015158152602001600081525090565b828054828255906000526020600020908101928215611214579160200282015b828111156112135782518260006101000a81548173ffffffffffffffffffffffffffffffffffffffff021916908373ffffffffffffffffffffffffffffffffffffffff160217905550916020019190600101906111bb565b5b5090506112219190611225565b5090565b5b8082111561123e576000816000905550600101611226565b5090565b60008151905061125181611ec4565b92915050565b60008135905061126681611edb565b92915050565b60008135905061127b81611ef2565b92915050565b60008151905061129081611ef2565b92915050565b6000602082840312156112ac576112ab611cc8565b5b60006112ba84828501611242565b91505092915050565b600080604083850312156112da576112d9611cc8565b5b60006112e885828601611257565b92505060206112f98582860161126c565b9150509250929050565b60006020828403121561131957611318611cc8565b5b60006113278482850161126c565b91505092915050565b60006020828403121561134657611345611cc8565b5b600061135484828501611281565b91505092915050565b6000806040838503121561137457611373611cc8565b5b60006113828582860161126c565b92505060206113938582860161126c565b9150509250929050565b60006113a983836113b5565b60208301905092915050565b6113be81611af9565b82525050565b6113cd81611af9565b82525050565b60006113de826119e8565b6113e88185611a0b565b93506113f3836119d8565b8060005b8381101561142457815161140b888261139d565b9750611416836119fe565b9250506001810190506113f7565b5085935050505092915050565b61143a81611b0b565b82525050565b61144981611b17565b82525050565b61146061145b82611b17565b611bc7565b82525050565b6000611471826119f3565b61147b8185611a1c565b935061148b818560208601611b4b565b61149481611ccd565b840191505092915050565b60006114ac600f83611a38565b91506114b782611cde565b602082019050919050565b60006114cf601c83611a38565b91506114da82611d07565b602082019050919050565b60006114f2602f83611a38565b91506114fd82611d30565b604082019050919050565b6000611515600f83611a38565b915061152082611d7f565b602082019050919050565b6000611538601783611a38565b915061154382611da8565b602082019050919050565b600061155b602383611a38565b915061156682611dd1565b604082019050919050565b600061157e601f83611a38565b915061158982611e20565b602082019050919050565b60006115a1601f83611a38565b91506115ac82611e49565b602082019050919050565b60006115c4600083611a2d565b91506115cf82611e72565b600082019050919050565b60006115e7602183611a38565b91506115f282611e75565b604082019050919050565b600060e0830160008301516116156000860182611699565b506020830151848203602086015261162d82826113d3565b91505060408301516116426040860182611699565b5060608301516116556060860182611699565b50608083015161166860808601826113b5565b5060a083015161167b60a0860182611431565b5060c083015161168e60c0860182611699565b508091505092915050565b6116a281611b41565b82525050565b6116b181611b41565b82525050565b6116c86116c382611b41565b611bd1565b82525050565b60006116da828561144f565b6020820191506116ea82846116b7565b6020820191508190509392505050565b6000611705826115b7565b9150819050919050565b600060208201905061172460008301846113c4565b92915050565b600060608201905061173f60008301866113c4565b61174c60208301856116a8565b818103604083015261175e8184611466565b9050949350505050565b600060408201905061177d6000830185611440565b61178a60208301846116a8565b9392505050565b60006060820190506117a66000830186611440565b6117b360208301856116a8565b6117c060408301846113c4565b949350505050565b60006080820190506117dd6000830187611440565b6117ea60208301866116a8565b6117f760408301856113c4565b61180460608301846116a8565b95945050505050565b600060208201905081810360008301526118268161149f565b9050919050565b60006020820190508181036000830152611846816114c2565b9050919050565b60006020820190508181036000830152611866816114e5565b9050919050565b6000602082019050818103600083015261188681611508565b9050919050565b600060208201905081810360008301526118a68161152b565b9050919050565b600060208201905081810360008301526118c68161154e565b9050919050565b600060208201905081810360008301526118e681611571565b9050919050565b6000602082019050818103600083015261190681611594565b9050919050565b60006020820190508181036000830152611926816115da565b9050919050565b6000602082019050818103600083015261194781846115fd565b905092915050565b600060208201905061196460008301846116a8565b92915050565b600060408201905061197f60008301856116a8565b61198c60208301846116a8565b9392505050565b60006080820190506119a860008301876116a8565b6119b560208301866116a8565b6119c260408301856116a8565b6119cf60608301846116a8565b95945050505050565b6000819050602082019050919050565b600081519050919050565b600081519050919050565b6000602082019050919050565b600082825260208201905092915050565b600082825260208201905092915050565b600081905092915050565b600082825260208201905092915050565b6000611a5482611b41565b9150611a5f83611b41565b9250827fffffffffffffffffffffffffffffffffffffffffffffffffffffffffffffffff03821115611a9457611a93611c0c565b5b828201905092915050565b6000611aaa82611b41565b9150611ab583611b41565b9250817fffffffffffffffffffffffffffffffffffffffffffffffffffffffffffffffff0483118215151615611aee57611aed611c0c565b5b828202905092915050565b6000611b0482611b21565b9050919050565b60008115159050919050565b6000819050919050565b600073ffffffffffffffffffffffffffffffffffffffff82169050919050565b6000819050919050565b60005b83811015611b69578082015181840152602081019050611b4e565b83811115611b78576000848401525b50505050565b6000611b8982611b41565b91507fffffffffffffffffffffffffffffffffffffffffffffffffffffffffffffffff821415611bbc57611bbb611c0c565b5b600182019050919050565b6000819050919050565b6000819050919050565b6000611be682611b41565b9150611bf183611b41565b925082611c0157611c00611c3b565b5b828206905092915050565b7f4e487b7100000000000000000000000000000000000000000000000000000000600052601160045260246000fd5b7f4e487b7100000000000000000000000000000000000000000000000000000000600052601260045260246000fd5b7f4e487b7100000000000000000000000000000000000000000000000000000000600052603260045260246000fd5b7f4e487b7100000000000000000000000000000000000000000000000000000000600052604160045260246000fd5b600080fd5b6000601f19601f8301169050919050565b7f5472616e73666572206661696c65640000000000000000000000000000000000600082015250565b7f56616c7565206d7573742062652067726561746572207468616e203000000000600082015250565b7f546865726520686173206265656e206e6f2070617274696369706174696f6e2060008201527f696e2074686973206c6f74746572790000000000000000000000000000000000602082015250565b7f4e6f7420656e6f756768204c494e4b0000000000000000000000000000000000600082015250565b7f4c6f7474657279206973207374696c6c20616374697665000000000000000000600082015250565b7f56616c7565206d75737420626520657175616c20746f207469636b657420707260008201527f6963650000000000000000000000000000000000000000000000000000000000602082015250565b7f4c6f74746572792070617274696369706174696f6e20697320636c6f73656400600082015250565b7f4f6e6c7920565246436f6f7264696e61746f722063616e2066756c66696c6c00600082015250565b50565b7f4f6e6c792061646d696e2063616e2063616c6c20746869732066756e6374696f60008201527f6e00000000000000000000000000000000000000000000000000000000000000602082015250565b611ecd81611b0b565b8114611ed857600080fd5b50565b611ee481611b17565b8114611eef57600080fd5b50565b611efb81611b41565b8114611f0657600080fd5b5056fea26469706673582212208d9d2668ccfd9cac99354ed15adeef7d95e47c3a4afbe723dedbdcdb901177bf64736f6c63430008070033",
  "devdoc": {
    "kind": "dev",
    "methods": {},
    "version": 1
  },
  "userdoc": {
    "kind": "user",
    "methods": {},
    "version": 1
  },
  "storageLayout": {
    "storage": [
      {
        "astId": 79,
        "contract": "contracts/Lottery.sol:LotteryGame",
        "label": "nonces",
        "offset": 0,
        "slot": "0",
        "type": "t_mapping(t_bytes32,t_uint256)"
      },
      {
        "astId": 671,
        "contract": "contracts/Lottery.sol:LotteryGame",
        "label": "lotteries",
        "offset": 0,
        "slot": "1",
        "type": "t_mapping(t_uint256,t_struct(Lottery)740_storage)"
      },
      {
        "astId": 675,
        "contract": "contracts/Lottery.sol:LotteryGame",
        "label": "lotteryRandomnessRequest",
        "offset": 0,
        "slot": "2",
        "type": "t_mapping(t_bytes32,t_uint256)"
      },
      {
        "astId": 681,
        "contract": "contracts/Lottery.sol:LotteryGame",
        "label": "participations",
        "offset": 0,
        "slot": "3",
        "type": "t_mapping(t_uint256,t_mapping(t_address,t_uint256))"
      },
      {
        "astId": 685,
        "contract": "contracts/Lottery.sol:LotteryGame",
        "label": "uniqueParticipations",
        "offset": 0,
        "slot": "4",
        "type": "t_mapping(t_uint256,t_uint256)"
      },
      {
        "astId": 688,
        "contract": "contracts/Lottery.sol:LotteryGame",
        "label": "lotteryId",
        "offset": 0,
        "slot": "5",
        "type": "t_struct(Counter)271_storage"
      },
      {
        "astId": 690,
        "contract": "contracts/Lottery.sol:LotteryGame",
        "label": "s_keyHash",
        "offset": 0,
        "slot": "6",
        "type": "t_bytes32"
      },
      {
        "astId": 692,
        "contract": "contracts/Lottery.sol:LotteryGame",
        "label": "s_fee",
        "offset": 0,
        "slot": "7",
        "type": "t_uint256"
      },
      {
        "astId": 694,
        "contract": "contracts/Lottery.sol:LotteryGame",
        "label": "admin",
        "offset": 0,
        "slot": "8",
        "type": "t_address"
      }
    ],
    "types": {
      "t_address": {
        "encoding": "inplace",
        "label": "address",
        "numberOfBytes": "20"
      },
      "t_array(t_address)dyn_storage": {
        "base": "t_address",
        "encoding": "dynamic_array",
        "label": "address[]",
        "numberOfBytes": "32"
      },
      "t_bool": {
        "encoding": "inplace",
        "label": "bool",
        "numberOfBytes": "1"
      },
      "t_bytes32": {
        "encoding": "inplace",
        "label": "bytes32",
        "numberOfBytes": "32"
      },
      "t_mapping(t_address,t_uint256)": {
        "encoding": "mapping",
        "key": "t_address",
        "label": "mapping(address => uint256)",
        "numberOfBytes": "32",
        "value": "t_uint256"
      },
      "t_mapping(t_bytes32,t_uint256)": {
        "encoding": "mapping",
        "key": "t_bytes32",
        "label": "mapping(bytes32 => uint256)",
        "numberOfBytes": "32",
        "value": "t_uint256"
      },
      "t_mapping(t_uint256,t_mapping(t_address,t_uint256))": {
        "encoding": "mapping",
        "key": "t_uint256",
        "label": "mapping(uint256 => mapping(address => uint256))",
        "numberOfBytes": "32",
        "value": "t_mapping(t_address,t_uint256)"
      },
      "t_mapping(t_uint256,t_struct(Lottery)740_storage)": {
        "encoding": "mapping",
        "key": "t_uint256",
        "label": "mapping(uint256 => struct LotteryGame.Lottery)",
        "numberOfBytes": "32",
        "value": "t_struct(Lottery)740_storage"
      },
      "t_mapping(t_uint256,t_uint256)": {
        "encoding": "mapping",
        "key": "t_uint256",
        "label": "mapping(uint256 => uint256)",
        "numberOfBytes": "32",
        "value": "t_uint256"
      },
      "t_struct(Counter)271_storage": {
        "encoding": "inplace",
        "label": "struct Counters.Counter",
        "members": [
          {
            "astId": 270,
            "contract": "contracts/Lottery.sol:LotteryGame",
            "label": "_value",
            "offset": 0,
            "slot": "0",
            "type": "t_uint256"
          }
        ],
        "numberOfBytes": "32"
      },
      "t_struct(Lottery)740_storage": {
        "encoding": "inplace",
        "label": "struct LotteryGame.Lottery",
        "members": [
          {
            "astId": 726,
            "contract": "contracts/Lottery.sol:LotteryGame",
            "label": "lotteryId",
            "offset": 0,
            "slot": "0",
            "type": "t_uint256"
          },
          {
            "astId": 729,
            "contract": "contracts/Lottery.sol:LotteryGame",
            "label": "participants",
            "offset": 0,
            "slot": "1",
            "type": "t_array(t_address)dyn_storage"
          },
          {
            "astId": 731,
            "contract": "contracts/Lottery.sol:LotteryGame",
            "label": "ticketPrice",
            "offset": 0,
            "slot": "2",
            "type": "t_uint256"
          },
          {
            "astId": 733,
            "contract": "contracts/Lottery.sol:LotteryGame",
            "label": "prize",
            "offset": 0,
            "slot": "3",
            "type": "t_uint256"
          },
          {
            "astId": 735,
            "contract": "contracts/Lottery.sol:LotteryGame",
            "label": "winner",
            "offset": 0,
            "slot": "4",
            "type": "t_address"
          },
          {
            "astId": 737,
            "contract": "contracts/Lottery.sol:LotteryGame",
            "label": "isFinished",
            "offset": 20,
            "slot": "4",
            "type": "t_bool"
          },
          {
            "astId": 739,
            "contract": "contracts/Lottery.sol:LotteryGame",
            "label": "endDate",
            "offset": 0,
            "slot": "5",
            "type": "t_uint256"
          }
        ],
        "numberOfBytes": "192"
      },
      "t_uint256": {
        "encoding": "inplace",
        "label": "uint256",
        "numberOfBytes": "32"
      }
    }
  }
}